:02000002D0002C
:1040000000400D005C550D00000006000C0005018D
:084010000401FD08000000009E
:0440180094520D00B1
:10401C0009480A49884208B505D0094A824202D0AB
:10402C00121A01F089F80748074A0021121A01F008
:10403C0091F8014808BD00BF38E20320C4540D00BC
:10404C00A8E20320A8E20320EDE7032070B5074E99
:10405C00074C00F079FCA41BA4080025A54200D154
:10406C0070BD56F8043B98470135F7E798540D009E
:10407C00BC540D0000F078B808B500F07DF8BDE830
:10408C00084000F019BC00F00DBB00F00BBB00F0B9
:10409C0011BB0078B0FA80F040097047012303701F
:1040AC00704700F1080373B50360044608460D46DB
:1040BC0001F07CF80F2805EB0006019007D90022CF
:1040CC0001A9204600F0B8FF019B2060A360206886
:1040DC003246294600F0E8FF019B2268636000210C
:1040EC002046D15402B070BD70B5144E0546002464
:1040FC006B689C421BD22B6830881B5D2E2B4FF0BB
:10410C0001010FD100F039FF4FF4967000F0A8FBBD
:10411C003088002100F031FF4FF4967000F0A0FBC6
:10412C000134E5E700F029FF4FF46170EEE7BDE8DC
:10413C0070404FF4617000F093BB00BF38E2032075
:10414C0030B5044687B000F190052146684600F072
:10415C00D5FF6846FFF7C8FF1834684600F08EFF9D
:10416C00AC42F2D107B030BD024B0121188800F0EF
:10417C00F3BE00BF38E2032008B50448FFF7E0FFA8
:10418C00BDE8084040F6340000F06ABBA8E203200A
:10419C002DE9F047DFF8E8A14749484EDFF8E48104
:1041AC00474FDFF8E491474D474C5046FFF779FFF6
:1041BC0046494748FFF775FF46494748FFF771FFE7
:1041CC0046494748FFF76DFF46493046FFF769FF00
:1041DC0045494648FFF765FF45494648FFF761FFEB
:1041EC0045494046FFF75DFF44494548FFF759FFF5
:1041FC0044494548FFF755FF44494548FFF751FFEF
:10420C0044493846FFF74DFF43494448FFF749FFFF
:10421C0043494448FFF745FF43494448FFF741FFF2
:10422C0043494448FFF73DFF43494448FFF739FFF2
:10423C0043494448FFF735FF43494846FFF731FFF0
:10424C0042494348FFF72DFF42494348FFF729FFF6
:10425C0042494348FFF725FF42494348FFF721FFF6
:10426C0042494348FFF71DFF42492846FFF719FF13
:10427C0041494248FFF715FF5146204600F03EFFEA
:10428C00494604F1180000F039FF414604F13000B2
:10429C0000F034FF394604F1480000F02FFF31469E
:1042AC0004F1600000F02AFF294604F17800BDE813
:1042BC00F04700F023BF00BFCD520D0098E3032060
:1042CC0040E4032078E50320A8E20320A8520D0067
:1042DC0050E30320AD520D0068E30320E0520D00C3
:1042EC0080E30320C9520D00B2520D00B0E303204D
:1042FC00C7520D00C8E30320B7520D00E1520D0068
:10430C00F8E30320BC520D0010E40320CC520D0046
:10431C0028E40320C1520D00BE520D0058E40320C6
:10432C00C8520D0070E40320BD520D0088E4032038
:10433C00C6520D00A0E40320CB520D00B8E40320BC
:10434C00AE520D00D0E40320A9520D00BF520D0057
:10435C0000E50320D6520D0018E50320D0520D00C5
:10436C0030E50320DB520D0048E50320D5520D004B
:10437C0060E50320DA520D00DF520D0090E50320BA
:10438C0038E30320E0E30320E8E4032008B5024B04
:10439C001B689B68019308BD6802030008B5024BBB
:1043AC001B68DB68019308BD6802030008B5024B6B
:1043BC001B689B68019308BD2C02030008B5024BD7
:1043CC001B68DB68019308BD2C02030008B5024B87
:1043DC001B681B69019308BD2C02030008B5024B36
:1043EC001B685B68019308BD1802030008B5024BFB
:1043FC001B685B69019308BD1802030008B5024BEA
:10440C001B685B6C019308BD4802030008B5024BA6
:10441C001B685B69019308BD6402030008B5024B7D
:10442C001B681B68019308BD3C02030008B5024BD6
:10443C001B68DB68019308BD3C02030008B5024B06
:10444C001B681B69019308BD3C02030008B5024BB5
:10445C001B685B69019308BD3C02030008B5024B65
:10446C001B689B69019308BD3C02030008B5024B15
:10447C001B68DB69019308BD3C02030008B5024BC5
:10448C001B681B6A019308BD3C02030008B5024B74
:10449C001B689B6A019308BD3C02030008B5024BE4
:1044AC001B681B6A019308BD2802030008B5024B68
:1044BC001B685B6A019308BD2802030008B5024B18
:1044CC001B689B6A019308BD2802030008B5024BC8
:1044DC001B68DB6A019308BD2802030008B5024B78
:1044EC001B681B6B019308BD2802030008B5024B27
:1044FC001B685B6B019308BD2802030008B5024BD7
:10450C001B681B6C019308BD2802030008B5024B05
:10451C001B68DB69019308BD3002030008B5024B30
:10452C001B681B6A019308BD3002030008B5024BDF
:10453C001B681B68019308BD4C02030008B5024BB5
:10454C001B681B69019308BD4C02030008B5024BA4
:10455C001B685B69019308BD4C02030008B5024B54
:10456C001B689B69019308BD4C02030008B5024B04
:10457C001B68DB69019308BD4C02030008B5024BB4
:10458C001B681B6A019308BD4C02030008B5024B63
:10459C001B685B68019308BD2002030008B5024B41
:1045AC001B685B69019308BD2002030008B5034B2F
:1045BC001B68D3F88830019308BD0000200203006B
:1045CC0008B5034B1B68D3F89430019308BD000069
:1045DC002002030008B5024B1B685B68019308BD01
:1045EC004002030008B5024B1B689B68019308BD91
:1045FC004002030008B5024B1B68DB68019308BD41
:10460C004002030008B5024B1B681B69019308BDEF
:10461C004002030008B5024B1B685B69019308BD9F
:10462C004002030008B5024B1B689B69019308BD4F
:10463C004002030008B5024B1B68DB69019308BDFF
:10464C004002030008B5024B1B681B6A019308BDAE
:10465C004002030008B5024B1B681B6B019308BD9D
:10466C004002030008B5024B1B685B6B019308BD4D
:10467C004002030008B5024B1B681B6C019308BD7C
:10468C004002030008B5024B1B685B6C019308BD2C
:10469C004002030008B5024B1B68DB6B019308BD9D
:1046AC004402030008B5024B1B681B68019308BD4C
:1046BC001C02030008B5024B1B685B68019308BD24
:1046CC001C02030008B5024B1B68DB6A019308BD92
:1046DC001C02030008B5024B1B685B6C019308BD00
:1046EC001C020300002240681146FFF7ABBF0022FA
:1046FC0040681146FFF7B6BF40680022FFF7AABF1B
:10470C004068002281F00101FFF794BF002340684C
:10471C001A461946FFF786BF002340681A46194609
:10472C00FFF778BF002240681146FFF76BBF0022ED
:10473C0040681146FFF756BF406800220221FFF780
:10474C0059BF002340681A46FFF744BF024B0322AF
:10475C005A60024A1A607047A8E50320EC520D001B
:10476C0010B5044608462170FFF7D0FE00236360A5
:10477C00204610BD054B02221A60054B054A9A6073
:10478C000020186098809871FFF700BFBCE50320EB
:10479C00B0E503200000FFFF024800230360FFF791
:1047AC002DBE00BFC0E50320F8B506460D468F1898
:1047BC000024BD420CD0336815F8011B9B683046B1
:1047CC009847031E01DB1C44F3E7002C08BF1C4672
:1047DC002046F8BD13B50446084659B1019100F0C6
:1047EC00E5FC23680199DB680246204602B0BDE86F
:1047FC001040184702B010BD03689B68184730B5CD
:10480C008BB000238DF82430012A98BF0A2209AC02
:10481C000D46B1FBF2F101FB125303F0FF03092B20
:10482C0094BF30333733DBB2AA4204F8013DEFD9E1
:10483C002146FFF7CFFF0BB030BD0000014B024A01
:10484C001A607047C4E5032020530D00024B1A6810
:10485C00024B1A60704700BF3CE20320C8E50320FE
:10486C000021FFF79BBE0000014B00229A607047AD
:10487C00CCE50320014B1860704700BF40E20320D9
:10488C0008B50B4B43B100F05DF903681B69984701
:10489C00002801DDAFF30080064B43B100F0CCF9EA
:1048AC0003681B699847002801DDAFF3008008BD41
:1048BC00000000000000000008B5FFF7E1FFFFF763
:1048CC0095FD014B186008BD38E703200548064AE2
:1048DC00064908B5121A00F02FFC054B054A1A6060
:1048EC0008BD00BF00F4032004F40320C0540D00E5
:1048FC0000F403201E1C279A07B5002300931A46C8
:10490C006FF07701FFF75CFE03B05DF804FB00006D
:10491C0007B543880A2B08D0502B0BD1094B1B68C9
:10492C004BB103B05DF804EB1847FFF7E5FF03B09C
:10493C005DF804FB002300931A466FF07701FFF734
:10494C003FFEF4E7E0E5032010B512480021FFF725
:10495C00C1FE114B1A68114B9A42114B0CBF01222C
:10496C0000221A7001D0FFF7B1FFFFF737FD0446A4
:10497C0000F0F8FB0B4B13B12046AFF30080002185
:10498C000848FFF787FEBDE8104007480021FFF7F5
:10499C000DBE00BF81480D0000F403201E1C279A99
:1049AC00DCE50320000000001D490D00704710B528
:1049BC001821044600F038FB204610BDF0B5037DED
:1049CC00062B8DB00E4600F104074FF0000412D0F8
:1049DC0000F1080515F8011D0A223046FFF70FFFFC
:1049EC00AF42044419D0002CF4D02E213046FFF7EE
:1049FC0003FF0444EEE72F236A4639460A208DF85C
:104A0C000040FFF703FD684600F0D0FB3368024618
:104A1C00DB68694630469847044620460DB0F0BD29
:104A2C0010B5054B0446112240F8043B002100F060
:104A3C0091FB204610BD00BF48530D000346074AAA
:104A4C0010B543F8042B01F1100251F8044B43F854
:104A5C00044B9142F9D10A781A7010BD48530D00DD
:104A6C0010B59DF8084044EA032343EA024242EAA7
:104A7C00016104234160037510BD13B5CB7800931D
:104A8C008B784A780978FFF7EBFF02B010BD4174C0
:104A9C0070477047704708B50021007CFFF75EFD3A
:104AAC0040EAE07008BD08B50121007CFFF756FD17
:104ABC0040EAE07008BD08B5007CFFF747FD20EA2E
:104ACC00E07008BD08B5007CFFF738FD20EAE07007
:104ADC0008BD13B50446007C0191FFF737FD002893
:104AEC00019901DC607C20B1207CFFF73FFD20EABE
:104AFC00E07002B010BD007CFFF740BD10B5142172
:104B0C00044600F091FA204610BD000010B54FF499
:104B1C007A73044608460021C4E90113044B236050
:104B2C000123207463741146FFF700FD204610BD6D
:104B3C005C530D0010B514220446002100F00AFB52
:104B4C00204610BD10B50F4C88B003A8FFF7F2FF3C
:104B5C002178BFF35B8F11F001010FD12046019139
:104B6C00FFF797FA019948B103AA0748FFF7CEFF60
:104B7C002046FFF793FA054800F0D8FA024808B02F
:104B8C0010BD00BFE4E50320E8E503209F4A0D00BB
:104B9C00704741747047704708B5007CFFF776FC8E
:104BAC0020EAE07008BD08B5007CFFF747FC20EA5E
:104BBC00E07008BD08B5007CFFF750FC40EAE070DF
:104BCC0008BD08B5007CFFF741FC40EAE07008BD69
:104BDC00007CFFF74BBC37B5457C04462DB1207CDF
:104BEC0003B0BDE83040FFF721BC007C0191FFF71A
:104BFC004DFC00280199F2DC284603B030BD10B5FD
:104C0C001421044600F010FA204610BD10B54FF0E8
:104C1C00000C0446084611464FF47A72C4E901C2EE
:104C2C00044A22600122207462741A46FFF7F6FBD4
:104C3C00204610BD8C530D0013B50D4C2178BFF3DD
:104C4C005B8F11F0010110D120460191FFF721FA81
:104C5C00019950B1074B084A0848FFF7D7FF204687
:104C6C00FFF71CFA064800F061FA044802B010BDC8
:104C7C00FCE5032084E6032000E6032008E703207C
:104C8C00A34B0D007047F8B5064615460C468F1819
:104C9C00BC4206D0336814F8011B9B683046984719
:104CAC00F6E72846F8BD007C0022FFF7F7BB007C36
:104CBC000021FFF7FBBB007C0021FFF7FFBB007C52
:104CCC000021FFF703BC007C0021FFF707BC10B5E7
:104CDC001421044600F0A8F9204610BD10B54FF47D
:104CEC007A73044608460021C4E90113034B236080
:104CFC0020741146FFF702FC204610BDBC530D007A
:104D0C00002240681146FFF77DBC00224068114626
:104D1C00FFF798BC002240681146FFF7A3BC40681F
:104D2C000022FFF797BC4068002281F00101FFF7D9
:104D3C0081BC002340681A461946FFF773BC002358
:104D4C0040681A461946FFF765BC002240681146B8
:104D5C00FFF748BC406800220221FFF74BBC002340
:104D6C0040681A46FFF736BC024B04225A60024ACE
:104D7C001A6070471CE70320E4530D0000234068C1
:104D8C001A46FFF727BC406800220221FFF732BC0D
:104D9C00002240681146FFF725BC002240681146EE
:104DAC00FFF730BC002340681A461946FFF732BCA7
:104DBC00002340681A461946FFF734BC40680021AE
:104DCC00FFF758BC40680021FFF75CBC406800222C
:104DDC0081F00101FFF72EBC40680022FFF73ABCBE
:104DEC00002240681146FFF73DBC00224068114686
:104DFC00FFF728BC2DE9F043002495B016460D466C
:104E0C000746FFF70DFE214618220EA8009400F06D
:104E1C00A1F94023CDE90C3421466B460CAA30464F
:104E2C00FFF7BCFA0446002846D102460121686807
:104E3C00FFF7E8FB0221804622466868FFF7E2FB99
:104E4C00009E81462146002E36D0002934D173684D
:104E5C00022B03D00A2B0BD0F669F4E7B8F1000F44
:104E6C0004D0716938460431FFF707FE4146F3E779
:104E7C00B9F1000F01D14946EEE77469102201A87F
:104E8C0000F068F906238DF8143001AD04F1080325
:104E9C001834186859682A4603C20833A3421546C9
:104EAC00F7D101A906A807ADFFF7C8FD0FCD3C1D32
:104EBC000FC42B682370DEE70098FFF767FA3846BB
:104ECC0015B0BDE8F0830000024B034A1A600022C3
:104EDC005A60704724E7032020540D00232813B593
:104EEC0002D9002002B010BDA0F10B03022B1AD87E
:104EFC00174C2178BFF35B8F11F001010BD12046C9
:104F0C000191FFF7C6F8019928B11248FFF728FC68
:104F1C002046FFF7C3F80F4B1878FFF7FFFA00286D
:104F2C00DFD10120DEE7012809D800F059F8002173
:104F3C00007CFFF7DBFA80F00100C0B2D2E7093841
:104F4C000128EED8FFF778FE007CFFF797FAF2E71E
:104F5C002CE7032030E70320232838B504460D4600
:104F6C000AD8FF2908D0FFF7B9FF28B129462046F7
:104F7C00BDE83840FFF71ABA38BD38B504460D46BF
:104F8C00FFF71CFAFF2810D0062804D84D2323FA6B
:104F9C0000F0C30709D42046FFF7A0FF28B129462B
:104FAC002046BDE83840FFF711BA38BD7047000005
:104FBC0038B50023202543801423044603808560E4
:104FCC0005610649284600F031F80449606028461E
:104FDC0000F02CF8E060204638BD00BF54540D00A2
:104FEC0030B50E4D2978BFF35B8F11F0010487B0FB
:104FFC0011D12846FFF74DF868B101A8FFF7D8FF8B
:10500C0001AA21460648FFF769FE2846FFF746F835
:10501C00044800F08BF8024807B030BD3CE7032091
:10502C0040E70320B94F0D00FFF731B8FFF72DB85B
:10503C000AB100F081B8704708B50B68B3F1804F26
:10504C0002D30D4800F06FF893420BD9B3EB420F2B
:10505C004FEA420006D2B0F1804F2ABF6FF04043B6
:10506C0008600B600868013001D500F056F8BDE807
:10507C000840FFF708B800BF55540D0050F8083B26
:10508C00834202D01846FFF702B87047012A10B5C8
:10509C0002D10A78027010BDFFF7CAFFFBE708B512
:1050AC00521AFFF7F3FF08BD08B5521AFFF7EEFFCF
:1050BC0008BD000073B5044616460D4619B912B169
:1050CC000D4800F02DF8731B0F2B019307D900220C
:1050DC0001A92046FFF7B0FF019B2060A360324678
:1050EC0029462068FFF7DBFF019B226863600021E3
:1050FC00D15402B070BD00BF6D540D0038B500F135
:10510C0008030360D1E9005204464FF000032A441F
:10511C002946FFF7CFFF204638BD08B5FFF7D2FA76
:10512C0008B5FFF7CFFA08B5FFF7CCFA0023014614
:10513C001A46184600F042B80A44914200F1FF3377
:10514C0000D1704710B511F8014B03F8014F914293
:10515C00F9D110BD02440346934200D1704703F8C5
:10516C00011BF9E738B50D4B1D68AB6B04467BB9D9
:10517C001820FFF797FA0A4A0A4BA863C0E90023E4
:10518C00094B83600B23838101220023C0E9042394
:10519C00AB6B00221C615A6138BD00BF40E203209A
:1051AC000E33CDAB34126DE6ECDE0500034613F87E
:1051BC00012B002AFBD1181A013870472DE9F8434E
:1051CC00DFF8B8800646D8F800001F460D46914619
:1051DC0000F056F8254B1C6834B9254C1C60254B47
:1051EC0013B11B68C4F8883063681F2B07DDD8F82F
:1051FC00000000F047F84FF0FF30BDE8F8834EB3E5
:10520C00D4F8880088B91C4B23B9D8F8000000F0FA
:10521C0038F8F0E74FF48470FFF744FA0028F4D024
:10522C000023C0E94033C4F88800636840F8239039
:10523C0001229A4000EB8301D0F800311343022E77
:10524C00C0F80031C1F8807002BFD0F804311A43A5
:10525C00C0F804216368D8F800005A1C023362605D
:10526C0044F8235000F00EF80020C6E7E0E70320D6
:10527C0054E7032000000000B1460D00A4E2032017
:10528C0070477047704700001D400D0059400D00DD
:10529C0081400D0085400D00000000002D2E2E2EAB
:1052AC00002D2E2D2E002E2E2D2E002E2E2E2E00CD
:1052BC002E2D2D2D002E2D2E2E002E2D2D2E002D93
:1052CC002D2E2D002E2E2E2D002D2E2E2D002D2E82
:1052DC002D2D002D2D2E2E000000000000000000B2
:1052EC004F470D0045470D003B470D0031470D0062
:1052FC0025470D0019470D00C94D0D00D14D0D006E
:10530C000D470D0005470D00FB460D00F1460D0045
:10531C00014E0D006170700025592D256D2D2564F1
:10532C005425483A254D3A2553257A006173637408
:10533C00696D65000000000000000000C9490D0007
:10534C00B9490D00BB490D00000000000000000031
:10535C00A14A0D00094B0D00DF4A0D00B5470D00A9
:10536C00D14A0D00A34A0D00B34A0D00034B0D00AA
:10537C00C34A0D009B4A0D00000000000000000015
:10538C009D4B0D000B4C0D00E34B0D00B5470D0074
:10539C00B34B0D00CF4B0D00C14B0D00DD4B0D0081
:1053AC009F4B0D00A54B0D000000000000000000FD
:1053BC00914C0D00DB4C0D00B34C0D00934C0D00CB
:1053CC00BB4C0D00C34C0D00CB4C0D00D34C0D0051
:1053DC0000000000000000006B4D0D00614D0D0041
:1053EC00574D0D000D4D0D004B4D0D003F4D0D005B
:1053FC00C94D0D00D14D0D00334D0D002B4D0D0041
:10540C00214D0D00174D0D00014E0D000000000048
:10541C0000000000894D0D00934D0D009D4D0D00B9
:10542C00A74D0D00B14D0D00BD4D0D00C94D0D002A
:10543C00D14D0D00D94D0D00E54D0D00ED4D0D007C
:10544C00F74D0D00014E0D000062617369635F73CF
:10545C007472696E673A3A5F4D5F63726561746529
:10546C000062617369635F737472696E673A3A5F65
:10547C004D5F636F6E737472756374206E756C6CB4
:10548C00206E6F742076616C696400009D410D0084
:10549C0059470D0081470D00A5470D0049480D00E7
:1054AC0059480D0075480D00754D0D00D54E0D0079
:0454BC0000000000EC
:0454C00000000000E8
:1054C4000700000038530D0044E2032000000000F0
:1054D40000000000000000000000000000000000C8
:1054E40000000000000000000000000000000000B8
:1054F40000000000000000000000000000000000A8
:105504000000000000000000000000000000000097
:105514000000000000000000000000000000000087
:10552400000000000000000000000000E5E7032088
:10553400FFFFFFFF00000102030405060708090A34
:105544000B0C0D0E0F101112131415161718191A2F
:085554001B1C1D1E1F20280076
:04555C007856341237
:04000003D000401CCD
:00000001FF
